S01B00002E2F44656275672F6173636969646973706C61792E73313967
S315200000000248854600F0D4F9FEE7C04600C001202C
S3152000001080B500AF024B034A1A60C046BD4680BD7C
S31520000020001002405555555580B584B000AF0200EA
S31520000030FB1D1A700C4A0F23FB1812781A70FA1D32
S315200000400F23FB1812781B781343DAB20F23FB1801
S3152000005004210A431A70044A0F23FB181B781370D5
S31520000060C046BD4604B080BD1410024080B584B0A1
S3152000007000AF0200FB1D1A700F4A0F23FB181278DF
S315200000801A70FB1D1B78DB43D9B20F23FB181A7895
S315200000900B1C1340DBB21A1C04231343DAB20F23C2
S315200000A0FB181A70044A0F23FB181B781370C046DE
S315200000B0BD4604B080BDC0461410024080B582B053
S315200000C000AF0200FB1D1A700320FFF7CFFFFB1DB8
S315200000D01B78180000F01AF8C046BD4602B080BD55
S315200000E080B582B000AF0200FB1D1A700120FFF719
S315200000F09BFF0220FFF7BAFFFB1D1B78180000F0BC
S3152000010005F8C046BD4602B080BDC04680B582B067
S3152000011000AF0200FB1D1A704020FFF785FF064A3C
S31520000120FB1D1B78137000F061F84020FFF79EFF3F
S31520000130C046BD4602B080BD1510024080B582B0D3
S3152000014000AF4020FFF770FF00F050F800F04EF8A7
S31520000150064AFB1D12781A704020FFF787FFFB1D09
S315200001601B781800BD4602B080BDC0461110024063
S3152000017090B583B000AF0B4B0B4A1A600220FFF7F5
S3152000018053FF0120FFF772FFFC1DFFF7D7FF030087
S315200001902370044B054A1A60FB1D1B781800BD46C8
S315200001A003B090BD001002405555000055555555D9
S315200001B090B583B000AF0A4B0A4A1A600320FFF7B6
S315200001C033FFFC1DFFF7BAFF03002370044B064ADA
S315200001D01A60FB1D1B781800BD4603B090BDC046B3
S315200001E000100240555500005555555580B500AFB5
S315200001F00C4B00221A600C4B29221A600B4B002252
S315200002001A60084B05221A60C046064B1A688023DE
S315200002105B021340F9D0034B00221A60C046BD464C
S3152000022080BDC04610E000E014E000E018E000E0E9
S3152000023080B582B000AF786007E0FFF7D7FFFFF701
S31520000240D5FFFFF7D3FFFFF7D1FF7B685A1E7A60F1
S31520000250002BF2D1C046BD4602B080BD80B582B02B
S3152000026000AF786004E0FA239B001800FFF7E0FF58
S315200002707B685A1E7A60002BF5D1C046BD4602B077
S3152000028080BDC04680B500AF0320FFF7EFFEC04615
S31520000290FFF76EFF0300DBB25BB2002BF8DB082012
S315200002A0FFF7C6FF3820FFF709FF2720FFF7C0FF1B
S315200002B0C046FFF75DFF0300DBB25BB2002BF8DB25
S315200002C00820FFF7B5FF0E20FFF7F8FE2720FFF7DF
S315200002D0AFFFC046FFF74CFF0300DBB25BB2002B3B
S315200002E0F8DB0820FFF7A4FF0120FFF7E7FE022036
S315200002F0FFF7B4FFC046FFF73BFF0300DBB25BB25C
S31520000300002BF8DB0820FFF793FF0420FFF7D6FE2B
S315200003102720FFF78DFFC046BD4680BD80B582B041
S3152000032000AF0200FB1D1A70C046FFF721FF030035
S31520000330DBB25BB2002BF8DB0820FFF779FFFB1D51
S315200003401B781800FFF7CCFE2720FFF771FFC04669
S31520000350BD4602B080BDC04680B584B000AF78608F
S3152000036039607B68013BFB603B68022B02D1FB684E
S315200003704033FB60C046FFF7FBFE0300DBB25BB2F7
S31520000380002BF8DB0820FFF753FFFB68DBB21A1CB3
S3152000039080235B421343DBB2DBB21800FFF78EFEED
S315200003A02720FFF745FFC046BD4604B080BDC046A6
S315200003B090B58BB000AF1423FB181D4A13CA13C384
S315200003C012881A803B1D1B4A13CA13C31188198031
S315200003D092789A70FFF71CFEFFF754FF0121012047
S315200003E0FFF7BAFF1423FB187B6206E07B6A5A1CD0
S315200003F07A621B781800FFF791FF7B6A1B78002B27
S31520000400F4D102210120FFF7A7FF3B1D7B6206E006
S315200004107B6A5A1C7A621B781800FFF77FFF7B6A7B
S315200004201B78002BF4D1C046BD460BB090BDC0460C
S315200004303804002048040020416C66616E756D65A5
S315200004407269736B20000000446973706C617920B7
S30D200004502D2074657374000071
S70520000000DA
